:020000040800F2
:1000000098080020FD04000859050008590500085B
:1000100059050008590500085905000800000000AE
:10002000000000000000000000000000590500086A
:10003000590500080000000059050008590500088E
:100040005905000859050008590500085905000818
:100050005905000859050008590500085905000808
:1000600059050008590500085905000859050008F8
:1000700059050008590500085905000859050008E8
:1000800059050008590500085905000859050008D8
:1000900059050008590500085905000859050008C8
:1000A00059050008590500085905000859050008B8
:1000B00059050008590500085905000859050008A8
:1000C0005905000859050008590500085905000898
:1000D00059050008590500085905000819070008C6
:1000E0005905000859050008590500085905000878
:1000F0005905000859050008590500085905000868
:100100005905000859050008590500085905000857
:100110005905000859050008590500085905000847
:100120005905000859050008590500085905000837
:100130005905000859050008590500085905000827
:100140005905000859050008590500085905000817
:100150005905000859050008590500085905000807
:1001600059050008590500085905000859050008F7
:1001700059050008590500085905000859050008E7
:10018000590500085905000880B58AB000AF7860AD
:10019000396000237B6200233B620023FB61002364
:1001A000BB617B681B8A9BB27B627B6A23F44053F2
:1001B0007B623B68DB881A467B6A13437B627B6AFF
:1001C0009AB27B681A827B689B899BB27B627B6A4E
:1001D00023F4B05323F00C037B623B689A883B689E
:1001E0001B8913439AB23B685B8913439BB21A463F
:1001F0007B6A13437B627B6A9AB27B689A817B68D5
:100200009B8A9BB27B627B6A23F440737B623B6870
:100210009B891A467B6A13437B627B6A9AB27B682E
:100220009A8207F10803184600F0E2FB7B68304A27
:10023000934203D07B682F4A934202D17B693B6291
:1002400001E03B693B627B689B899BB21BB2002B40
:100250000CDA3A6A13469B0013449A001A443B682E
:100260001B685B00B2FBF3F3FB610BE03A6A1346D9
:100270009B0013449A001A443B681B689B00B2FB26
:10028000F3F3FB61FB691C4AA2FB03235B091B011F
:100290007B627B6A1B09642202FB03F3FA69D31AAF
:1002A000BB617B689B899BB21BB2002B0CDABB69DC
:1002B000DB003233104AA2FB03235B0903F0070380
:1002C0007A6A13437B620BE0BB691B0132330A4A33
:1002D000A2FB03235B0903F00F037A6A13437B62DB
:1002E0007B6A9AB27B681A8100BF2837BD4680BD01
:1002F00000100140001401401F85EB5180B483B011
:1003000000AF78600B46FB70FB78002B08D07B6851
:100310009B899BB243F400539AB27B689A8107E0B1
:100320007B689B899BB223F400539AB27B689A81C5
:1003300000BF0C37BD4680BC704700BF80B483B09F
:1003400000AF78600B467B807B88C3F308039AB2CA
:100350007B689A8000BF0C37BD4680BC704700BFE9
:1003600080B483B000AF78607B689B889BB2C3F396
:1003700008039BB218460C37BD4680BC704700BFCF
:1003800080B487B000AF78600B467B8013467B70EB
:1003900000233B610023FB600023BB6000237B61E3
:1003A0007B687B617B88DBB25B09DBB23B617B886E
:1003B00003F01F03FB600122FB6802FA03F3BB603A
:1003C0003B69012B03D17B690C337B6109E03B69FD
:1003D000022B03D17B6910337B6102E07B6914330C
:1003E0007B617B78002B06D07B697A691168BA68DB
:1003F0000A431A6006E07B697A691168BA68D243D9
:100400000A401A6000BF1C37BD4680BC704700BF61
:1004100080B485B000AF78600B467B800023FB730F
:100420007B681B889AB27B8813409BB2002B02D05A
:100430000123FB7301E00023FB73FB7B1846143799
:10044000BD4680BC704700BF80B487B000AF786005
:100450000B467B800023FB6000237B610023BB6095
:100460000023FB747B88DBB25B09DBB2BB607B885B
:1004700003F01F037B6101227B6902FA03F37B61B6
:10048000BB68012B07D17B689B899BB21A467B69AD
:1004900013407B6111E0BB68022B07D17B681B8A8C
:1004A0009BB21A467B6913407B6106E07B689B8A9E
:1004B0009BB21A467B6913407B617B881B0A9BB207
:1004C000FB600122FB6802FA03F3FB607B681B8878
:1004D0009BB21A46FB681340FB607B69002B05D07A
:1004E000FB68002B02D00123FB7401E00023FB74A6
:1004F000FB7C18461C37BD4680BC704780B582B077
:1005000000AF104B7B60104B3B6007E03B681A1D4F
:100510003A607A68111D796012681A603B680B4A6C
:100520009342F3D30A480B494FF000028842B8BF08
:1005300040F8042BFADB00F02BF800BF0837BD466B
:1005400080BD00BF471100080000002010000020FF
:10055000100000209400002080B400AFFEE700BF30
:1005600080B483B000AF0346FB71084997F90730A8
:100570005B09FA7902F01F02012000FA02F241F849
:10058000232000BF0C37BD4680BC704700E100E06F
:1005900080B500AF00F022FC00F012F800F05CF82B
:1005A0004FF48051054800F0B1FB4FF4005103486F
:1005B00000F0ACFB00F038F8FEE700BF000C024092
:1005C00080B582B000AF0121082000F0BBFA4FF4E3
:1005D00070433B6001233B710023BB7103237B719C
:1005E0000023FB713B461946034800F0E7FA00BFC1
:1005F0000837BD4680BD00BF000C024080B483B008
:1006000000AF78607A6813465B001344DB007B60C0
:1006100000BF7B685A1E7A60002BFAD100BF0C37EE
:10062000BD4680BC704700BF80B500AF41F2883046
:10063000FFF7E4FF054800F0CDF8054800F0CAF8E0
:10064000044800F0C7F800BF80BD00BF10100008CC
:10065000201000083810000880B588B000AF4FF4B3
:10066000C06000F063FC0121042000F06BFA01215E
:100670004FF4802000F084FA4FF44063BB61022302
:100680003B770023BB770123FB7702237B7707F1BE
:10069000180319461E4800F091FA07220A211C4847
:1006A00000F054FB07220B21194800F04FFB4FF4D8
:1006B000E133BB600023BB810023FB8100233B822D
:1006C0000023BB820C237B8207F1080319461148E3
:1006D000FFF75AFD012240F225510E48FFF750FE68
:1006E00027233B7101237B710123BB710123FB7124
:1006F0003B1D184600F02CFC2720FFF731FF01219D
:100700000448FFF7FBFD00BF2037BD4680BD00BF9A
:10071000000802400048004080B500AF40F225517B
:100720002548FFF791FE0346002B42D0224B9B88C1
:100730009AB2224B1A80214B1B88232B0AD14FF4EB
:1007400080511F4800F0F0FA1E4800F043F81E48A0
:1007500000F040F8194B1B88242B0AD14FF40051AC
:10076000174800F0E1FA174800F034F8164800F096
:1007700031F8124B1B885E2B01D100F051F80F4B62
:100780001B883F2B15D14FF480510D4800F0A4FA7F
:100790000346002B0DD04FF40051094800F09CFA9D
:1007A0000346002B05D0094800F014F8084800F073
:1007B00011F800BF80BD00BF0048004010000020BD
:1007C000000C0240481000085C100008601000088F
:1007D0007410000880B582B000AF786014E07B68C8
:1007E0001B78DBB2002B0FD07B681B78DBB29BB28F
:1007F00019460A48FFF7A2FD4FF4FA70FFF7FEFE14
:100800007B685A1C7A601B787B681B78DBB2002BF4
:10081000E5D100BF0837BD4680BD00BF004800409D
:1008200080B582B000AF00237B6000F0CDF80346B6
:100830001946554A7B6813440A461A70524A7B6827
:1008400013441B783B2B08D14F4A7B68134400228A
:100850001A7000BF00237B6003E07B6801337B607C
:10086000E3E700F0B1F803461946484A7B681344B1
:100870000A461A70454A7B6813441B783B2B17D1F4
:10088000424A7B68134400221A7000BF4048FFF7B9
:10089000A1FF3D48FFF79EFF3E48FFF79BFF3B4807
:1008A000FFF798FF3C48FFF795FF00233B6010E0FF
:1008B0007B6801337B60D4E7334A3B6813440022F2
:1008C0001A70324A3B68134400221A703B680133A5
:1008D0003B603B683F2BEFDD00237B6000F074F84A
:1008E00003461A462D4B1A702C4B1B784F2B06D102
:1008F0002B48FFF76FFF2B48FFF76CFF0EE000233C
:100900007B6008E000F060F803461A46234B1A703B
:100910007B6801337B607B68072BF3DD1F4B1B7803
:10092000313B032B2AD801A252F823F03D090008DD
:100930004B090008610900086F0900081A48FFF711
:1009400049FF1A48FFF746FF18E01948FFF742FF32
:1009500041F28830FFF752FE1648FFF73BFF0DE0EB
:100960001548FFF737FF1548FFF734FF06E0144836
:10097000FFF730FF1348FFF72DFF00BF00237B6018
:1009800000BF0837BD4680BD140000205400002081
:1009900078100008881000088C1000081200002051
:1009A00090100008A4100008B0100008C41000083F
:1009B000D0100008E4100008F41000080811000826
:1009C000201100083411000880B500AF00BF2021BD
:1009D0000648FFF71DFD0346002BF8D00348FFF73C
:1009E000BFFC0346DBB2184680BD00BF0048004094
:1009F00080B489B000AF78600023BB6100237B61C5
:100A00000023FB6102233B610023FB600223BB60E8
:100A1000484B9B6803F00C03BB61BB69042B07D0F8
:100A2000082B09D0002B3FD17B68434A1A603FE076
:100A30007B68424A1A603BE03E4B5B6803F48003EC
:100A40009B0DFB603B4B5B6803F03F03BB60FB68A7
:100A5000002B0DD0394ABB68B2FBF3F2354B596815
:100A600047F6C0730B409B0903FB02F3FB610CE0EC
:100A7000314ABB68B2FBF3F22E4B596847F6C0739C
:100A80000B409B0903FB02F3FB612A4B5B6803F4F9
:100A900040331B0C01335B003B61FA693B69B2FBDD
:100AA000F3F27B681A6003E07B68234A1A6000BF98
:100AB000204B9B6803F0F003BB61BB691B09BB6162
:100AC0001F4ABB6913441B78DBB27B617B681A68E1
:100AD0007B69DA407B685A60164B9B6803F4E053ED
:100AE000BB61BB699B0ABB61154ABB6913441B7898
:100AF000DBB27B617B685A687B69DA407B689A600D
:100B00000C4B9B6803F46043BB61BB695B0BBB612F
:100B10000B4ABB6913441B78DBB27B617B685A6864
:100B20007B69DA407B68DA6000BF2437BD4680BC51
:100B3000704700BF003802400024F40000127A0021
:100B40000000002080B483B000AF78600B46FB70DB
:100B5000FB78002B06D00949084B1A6B7B681343BE
:100B60000B6306E00549054B1A6B7B68DB431340BA
:100B70000B6300BF0C37BD4680BC70470038024095
:100B800080B483B000AF78600B46FB70FB78002B1D
:100B900006D00949084B1A6C7B6813430B6406E0C6
:100BA0000549054B1A6C7B68DB4313400B6400BF9F
:100BB0000C37BD4680BC70470038024080B487B017
:100BC00000AF7860396000237B6100233B61002324
:100BD000FB6000237B6176E001227B6902FA03F36C
:100BE0003B613B681A683B691340FB60FA683B69EC
:100BF0009A4265D17B681A687B695B00032101FA20
:100C000003F3DB431A407B681A607B681A683B6811
:100C10001B7919467B695B0001FA03F31A437B6871
:100C20001A603B681B79012B03D03B681B79022BB0
:100C30002ED17B689A687B695B00032101FA03F37C
:100C4000DB431A407B689A607B689A683B685B79F3
:100C500019467B695B0001FA03F31A437B689A60CB
:100C60007B685A687B699BB2194601238B40DB4342
:100C70001A407B685A607B685B683A6892791146D3
:100C80007A6992B201FA02F292B21A437B685A6010
:100C90007B68DA687B699BB25B00032101FA03F38E
:100CA000DB431A407B68DA607B68DA683B68DB7993
:100CB00019467B695B0001FA03F31A437B68DA602B
:100CC0007B6901337B617B690F2B85D900BF1C37A2
:100CD000BD4680BC704700BF80B485B000AF78606F
:100CE0000B467B800023FB737B685A697B8813402B
:100CF000002B02D00123FB7301E00023FB73FB7B7D
:100D000018461437BD4680BC704700BF80B483B01E
:100D100000AF78600B467B807B687A881A8300BFBF
:100D20000C37BD4680BC704780B483B000AF78609C
:100D30000B467B807B685A697B885A407B685A6186
:100D400000BF0C37BD4680BC704700BF80B485B083
:100D500000AF78600B467B8013467B700023FB60FE
:100D60000023BB607A787B8803F007039B0002FABC
:100D700003F3FB607B88DB089BB218467B88DB08AB
:100D80009BB21A467B68083253F822207B8803F016
:100D900007039B000F2101FA03F3DB4302EA03017F
:100DA0007B6800F1080243F822107B88DB089BB2C5
:100DB0001A467B68083253F82220FB681343BB6055
:100DC0007B88DB089BB21A467B680832B96843F817
:100DD000221000BF1437BD4680BC704780B500AFFD
:100DE000124A124B1B6843F0010313600F4B0022A1
:100DF0009A600E4A0D4B1B6823F0847323F48033F2
:100E000013600A4B0A4A5A60084A084B1B6823F4CD
:100E100080231360054B0022DA6000F00DF8054BCB
:100E20004FF000629A6000BF80BD00BF00380240F2
:100E30001030002400ED00E080B483B000AF002348
:100E40007B6000233B60354A344B1B6843F480339E
:100E50001360324B1B6803F400333B607B68013343
:100E60007B603B68002B03D17B68B3F5A06FF0D1AA
:100E70002A4B1B6803F40033002B02D001233B6094
:100E800001E000233B603B68012B42D1234A234B06
:100E90001B6C43F080531364214A214B1B6843F4BD
:100EA000804313601D4A1D4B9B6893601B4A1B4B7C
:100EB0009B6843F400439360184A184B9B6843F4C3
:100EC000A0539360154B174A5A60144A134B1B6882
:100ED00043F08073136000BF104B1B6803F0007376
:100EE000002BF9D0104B40F205621A600B4A0B4BF5
:100EF0009B6823F003039360084A084B9B6843F008
:100F00000203936000BF054B9B6803F00C03082BA2
:100F1000F9D100BF0C37BD4680BC70470038024095
:100F20000070004008544007003C024080B483B089
:100F300000AF7860054A7B6843F0BF6343F4003339
:100F4000D36000BF0C37BD4680BC704700ED00E0A9
:100F500080B485B000AF78600023FB730023BB73BF
:100F60000F237B737B68DB78002B38D0264BDB6844
:100F7000DB4303F4E0631B0AFB73FB7BC3F1040355
:100F8000BB737A7BFB7B42FA03F37B737B685B78F2
:100F90001A46BB7B02FA03F3FB737B689A787B7B70
:100FA0001340DAB2FB7B1343FB73FB7B1B01FB7328
:100FB000164A7B681B781344FA7B83F80023134A94
:100FC0007B681B785B09DBB218467B681B7803F0F3
:100FD0001F03012101FA03F342F820300FE00B490F
:100FE0007B681B785B09DBB218467B681B7803F0D3
:100FF0001F0301229A4000F1200341F8232000BF83
:101000001437BD4680BC704700ED00E000E100E011
:1010100041542B4349504D55583D310D0A000000B5
:1010200041542B4349505345525645523D312C3182
:101030003333370D0A00000041542B4349505354B9
:101040004F3D3630300D0A0041542B434950534533
:101050004E443D302C310D0A000000000A00000013
:1010600041542B43495053454E443D302C330D0AD7
:101070000000000030300A0041542B43574A4150D1
:101080005F4445463D220000222C2200220D0A002A
:1010900041542B43495053454E443D302C31300D83
:1010A0000A000000436F6E6E65637465640A000099
:1010B00041542B43495053454E443D302C380D0A82
:1010C0000000000054696D656F75740A000000002F
:1010D00041542B43495053454E443D302C31350D3E
:1010E0000A00000057726F6E672070617373776F2C
:1010F00072640A0041542B43495053454E443D30DD
:101100002C32320D0A00000043616E6E6F7420664F
:10111000696E64207461726765742041500A000032
:1011200041542B43495053454E443D302C31380DEA
:101130000A000000436F6E6E656374696F6E20660F
:0711400061696C65640A009F
:101147000000000001020304010203040607080966
:0400000508000000EF
:00000001FF
